:1000000012C02AC029C028C027C026C025C024C0CD
:1000100023C022C021C020C01FC01EC01DC01CC0E4
:100020001BC01AC019C011241FBECFEDCDBF10E0F8
:10003000A0E6B0E0EAECF0E002C005900D92A03638
:10004000B107D9F710E0A0E6B0E001C01D92A036DC
:10005000B107E1F71CD037C0D3CF0CC027FF02C0D7
:10006000C09A01C0C098C19AC198220F3F5F383032
:10007000A9F720836150653030F4FC01E60FF11DD3
:10008000208130E0EBCF0895C29AC2980895DF93A3
:10009000CF9300D000D0CDB7DEB787B3876087BBE2
:1000A00088B3887F88BB87EF898386E78A838FE35D
:1000B0008B838FE18C83CE01019664E070E0CDDF0D
:0A00C000C29AC298FFCFF894FFCF58
:00000001FF
