:1000000012C02BC03AC028C027C026C046C024C09A
:1000100023C022C021C020C01FC01EC01DC01CC0E4
:100020001BC01AC019C011241FBECFEDCDBF10E0F8
:10003000A0E6B0E0EAE1F1E002C005900D92A03642
:10004000B107D9F710E0A0E6B0E001C01D92A036DC
:10005000B107E1F737D05FC0D3CF1F920F920FB631
:100060000F9211248F9385B78F7D85BF969A8F91BC
:100070000F900FBE0F901F9018951F920F920FB602
:100080000F9211248F9385B78F7D85BF969A8F919C
:100090000F900FBE0F901F9018951F920F920FB6E2
:1000A0000F9211248F939F9385B78F7D85BF82B365
:1000B00090E4892782BB9F918F910F900FBE0F9084
:1000C0001F90189581B3806681BB17BA85B785608C
:1000D00085BF8BB7806C8BBF85B78F7A85BF10BE0D
:1000E00083B7856083BF8AEF82BF789480E395E70A
:1000F00024E630E0F9013197F1F70197D9F7B19B88
:1001000004C085B7806285BF8895B09B02C0959A70
:0A011000F6CF9598F4CFF894FFCFD6
:00000001FF
