:1000000012C02AC029C028C027C026C025C024C0CD
:1000100023C022C021C020C01FC01EC01DC01CC0E4
:100020001BC01AC019C011241FBECFEDCDBF10E0F8
:10003000A0E6B0E0E0EAF0E002C005900D92A03644
:10004000B107D9F710E0A0E6B0E001C01D92A036DC
:10005000B107E1F712D022C0D3CF5D9BFECF8CB9A0
:1000600008955F9BFECF8CB1089512B88CE089B9DA
:1000700088E18AB986E083B9089512B88CE089B91D
:1000800088E18AB986E083B95D9BFECF81E68CB9B1
:100090005F9BFECF8CB15D9BFECFF9CFF894FFCF75
:00000001FF
