:1000000012C02CC02BC02AC029C028C027C026C0BF
:1000100025C024C023C022C021C020C01FC01EC0D4
:100020001DC01CC01BC011241FBECFE5D4E0DEBF25
:10003000CDBF10E0A0E6B0E0E8EEFAE002C0059027
:100040000D92A03AB107D9F710E0A0EAB0E001C0E4
:100050001D92A43CB107E1F7E5D444C5D1CF8F9AF6
:1000600097988FEF0027182F0395000000000000DD
:1000700000000117C9F78F9884E10027182F039516
:1000800000000000000000000117C9F781B398E7E5
:100090000027192F03950000000000000000011741
:1000A000C9F78095881F8827881F089520E090E071
:1000B00035E04EE18F9A97980027132F03950000A3
:1000C0000000000000000117C9F78F980027132FC8
:1000D000039500000000000000000117C9F780B37D
:1000E00096958078982B0027142F03950000000028
:1000F000000000000117C9F72F5F283009F0DACFA0
:10010000892F089590E035E029E18F9A979880FD36
:1001100014C00027122F039500000000000000000B
:100120000117C9F78F980027132F039500000000CF
:10013000000000000117C9F713C00027132F039513
:1001400000000000000000000117C9F78F98002789
:10015000122F039500000000000000000117C9F7EE
:100160009F5F983011F08695D0CF08958CECCADF50
:1001700084E4C8DF08958CECC5DF8EEBC3DF0895FF
:100180000027182F03950000000000000000011751
:10019000C9F708958E988D9800000000859B0EC0C9
:1001A000869B0CC086E0982F9A95F1F78D9A9598CA
:1001B0008A95F1F78E9A969881E0089580E00895E7
:1001C0008D9A95988E9A96988DE08A95F1F78E98EB
:1001D00086E08A95F1F78D98089520E04DE036E0AD
:1001E00087FD03C08D9A959801C08D98942F9A959C
:1001F000F1F78E98932F9A95F1F7869BFECF932F68
:100200009A95F1F78E9A96982F5F283011F0880F03
:10021000E7CF8D9886E08A95F1F78E988DE08A95E4
:10022000F1F780B38E9A969882958695877080951F
:100230008170089590E020E046E03DE0220F8E9826
:10024000869BFECF842F8A95F1F785992160832FB5
:100250008A95F1F78E9A9698832F8A95F1F79F5F8A
:10026000983061F78D9886E0982F9A95F1F78E98DF
:100270009DE09A95F1F78E9A9698982F9A95F1F7B6
:100280008D988A95F1F7822F08950F931F93182F59
:10029000062F80DF80EDA1DF812F9FDF802F9DDF84
:1002A0008FDF1F910F9108951F93182F73DF80ED3B
:1002B00094DF812F92DF6EDF81ED8FDFBBDF182FA0
:1002C0007FDF812F1F910895282F207F28BBC09AA0
:1002D000C29A28EE33E0F9013197F1F7C298C0983D
:1002E000F9013197F1F790E044E0880F991F4A95A2
:1002F000E1F788BBC09AC29AC9010197F1F7C29889
:10030000C098C9010197F1F70895282F207F28BBD5
:10031000C29A28EE33E0F9013197F1F7C298F9015A
:100320003197F1F790E054E0880F991F5A95E1F763
:1003300088BBC29AC9010197F1F7C298C901019718
:10034000F1F7089588E99AE30197F1F718BA18BA16
:1003500087B3806F87BB87B3876087BB80E388BB29
:10036000C29A28EE33E0F9013197F1F7C298F9010A
:100370003197F1F788BBC29AC9010197F1F7C2988A
:10038000C9010197F1F780E288BBC29AC9010197C0
:10039000F1F7C298C9010197F1F788E2B6DF8EE064
:1003A000B4DF089581E0B1DF089582E0AEDF089503
:1003B0000F931F93CF93DF93062F009741F0EC012B
:1003C00010E003C0899180DF1F5F1017D8F3DF9121
:1003D000CF911F910F910895623031F0633031F069
:1003E000613029F4805C03C08C5E01C08C5A806847
:1003F0008CDF08951F93CF93DF93EC01862F642F3A
:10040000EBDF10E002C060DF1F5FFE01E10FF11DB6
:1004100084918823C1F7DF91CF911F910895EF92C6
:10042000FF920F931F93CF93DF937C01162F110F31
:10043000110F110F1064C0E0D0E0F701EC0FFD1FA9
:100440000491812F8C0F61DF802F3EDF2196C83011
:10045000D10599F7DF91CF911F910F91FF90EF9008
:1004600008950F931F93082F10E003C08EE14DDF16
:100470001F5F1017D8F31F910F9108950F931F93CB
:10048000082F10E003C088E140DF1F5F1017D8F38A
:100490001F910F9108958EE038DF08958FE035DFCA
:1004A00008958CE032DF089588E02FDF08958CE016
:1004B0002CDF08950F931F93082F10E003C080E1F5
:1004C00024DF1F5F1017D8F31F910F9108950F932A
:1004D0001F93082F10E003C084E117DF1F5F101780
:1004E000D8F31F910F9108955D9BFECF8CB980E2E8
:1004F00093E00197F1F7089520E040E253E007C050
:100500005D9BFECF2F5FECB9FA013197F1F7FC014B
:10051000E20FF11DE081EE2399F708955F9BFECF76
:100520008CB1089588E18AB986E880BD10BC8CE062
:1005300089B91BB8089580E0B7DE682F60686093C2
:10054000B50080E0A2DE089580E0AEDE682F6F7710
:100550006093B50080E099DE0895282F6AE0A2D26A
:10056000382F3295307F822F9DD2832F890F0895A7
:10057000282F22952F709AE0299F900111248F70C7
:10058000820F0895E0EAF0E0DF010D900020E9F726
:100590001197AE1BBF0BCF016A2F0ADF8AE394DEEF
:1005A0008091B6008A3010F480E38EDEE8EAF0E055
:1005B000DF010D900020E9F71197AE1BBF0BCF01B3
:1005C0006A2FF6DE8AE380DE8091B5008A3010F46F
:1005D00080E37ADEACEBB0E0FD0101900020E9F7AA
:1005E0003197EA1BFB0BCD016E2FE2DE0895BF921F
:1005F000CF92DF92EF92FF920F931F93CF93DF93EF
:10060000EC01F62EE42E8901862F61E0E5DE74E62A
:10061000C72ED12C6AE0B62E999B2AC048814E1570
:1006200090F4842F8F5F8883282F22952F702B9D25
:10063000900111248F70820F6AE034D2992321F443
:10064000495F488301C01882D8010D900020E9F766
:100650001197A01BB10BC8016A2FAADE8F2D61E094
:10066000BBDE80ED97E0F6013197F1F70197D9F7FE
:10067000989BD2CFDF91CF911F910F91FF90EF9078
:10068000DF90CF90BF9008958DDE9899FECF8DDEDC
:1006900080E690E060E18CDE4EDF80E061E09CDE91
:1006A0008091B7008A3010F480E20EDE6BDFF3DE5B
:1006B00087EB90E060E043E220EA30E098DF8CEDE9
:1006C00095E024E630E0F9013197F1F70197D9F789
:1006D00086EB90E063E049E528EA30E088DF8CEDC6
:1006E00095E024E630E0F9013197F1F70197D9F769
:1006F00085EB90E066E049E52CEB30E078DFD1DE79
:1007000051DE08950F931F938091B50090E00CEB9C
:1007100010E08F779070B80140E150E094D1F8017B
:1007200001900020E9F78F0101501040F80110827C
:1007300008EA10E08091B60090E0B80140E150E096
:1007400082D1F80101900020E9F78F01015010409B
:10075000F801108200EA10E08091B70090E0B80143
:1007600040E150E070D1F80101900020E9F78F01DD
:1007700001501040F801108200EC10E08091B800A8
:1007800090E0B80140E150E05ED1F8010190002016
:10079000E9F78F0101501040F80110820CEA10E0D7
:1007A0008091B90090E0B80140E150E04CD1F801EF
:1007B00001900020E9F78F0101501040F8011082EC
:1007C00000EB10E08091BA0090E0B80140E150E009
:1007D0003AD1F80101900020E9F78F010150104053
:1007E000F80110821F910F9108950F931F938F9A14
:1007F00097988FEF0027182F039500000000000046
:1008000000000117C9F78F9884E10027182F03957E
:1008100000000000000000000117C9F781B388E75D
:100820000027182F039500000000000000000117AA
:10083000C9F79CDC80E038DD8093B50081E034DDD1
:100840008093B60082E030DD8093B70083E02CDD3A
:100850008093BB0084E028DD8093B80085E024DD30
:100860008093B90086E020DD8093BA004BDF80EDF5
:1008700097E024E630E0F9013197F1F70197D9F7D5
:1008800080ED97E024E630E0F9013197F1F7019728
:10089000D9F78F9A97988FEF0027182F03950000AC
:1008A0000000000000000117C9F78F9884E10027BD
:1008B000182F039500000000000000000117C9F781
:1008C00081B388E70027182F03950000000000007F
:1008D00000000117C9F74FDCE9DB8F9A97989FEF6B
:1008E0000027192F039500000000000000000117E9
:1008F000C9F78F9894E10027192F03950000000095
:10090000000000000117C9F791B398E70027192FDD
:10091000039500000000000000000117C9F786954C
:100920008093B40004EA10E090E0B8014AE050E09F
:100930008AD0F80101900020E9F78F0101501040A2
:10094000045A104004541F4FF80110821F910F9158
:1009500008952BDD4ADF16DE80E2B6DC8BE060E036
:100960003BDD8091B4008A508A3510F480E2ACDC23
:100970008091B4008A3020F480E2A6DC80E2A4DC1E
:10098000A4EAB0E0FD0101900020E9F73197EA1BED
:10099000FB0BCD016E2F0CDD8FED96DC83E494DC38
:1009A00080E061E019DDE091BB00F0E0EE0FFF1F99
:1009B000E057FF4F8081918163E0FADC86E061E0DF
:1009C0000BDDA0ECB0E0FD0101900020E9F73197CC
:1009D000EA1BFB0BCD016E2FEBDC8EE275DCACEA83
:1009E000B0E0FD0101900020E9F73197EA1BFB0B15
:1009F000CD016E2FDDDC81E790E064E0D9DC8091F1
:100A0000BA008A3010F480E35FDCA0EBB0E0FD01B7
:100A100001900020E9F73197EA1BFB0BCD016E2F07
:100A2000C7DC089588E18AB986E880BD10BC8CE0F7
:100A300089B91BB887DC35DD87DD14BA8ADF989B5E
:100A4000FDCF22DEFBCFFB019F01E8944230BCF0DA
:100A50004532ACF44A3029F497FB1EF49095819509
:100A60009F4F642F77272AD0805D8A330CF0895DF1
:100A70008193CB010097A9F716F45DE251931082A0
:100A8000C90100C0DC01FC01672F71917723E1F7F8
:100A9000329704C07C916D9370836291AE17BF074B
:100AA000C8F30895991B79E004C0991F961708F0C0
:100AB000961B881F7A95C9F780950895AA1BBB1BC2
:100AC00051E107C0AA1FBB1FA617B70710F0A61B4E
:100AD000B70B881F991F5A95A9F780959095BC016F
:080AE000CD010895F894FFCF49
:100AE8004E6173746176656E696520686F64696EBE
:100AF800002E20323000506F2000557420005374AF
:100B080072005374760050696100536F20004E657F
:100B1800200076007A007E00820086008A008E001F
:00000001FF
