:1000000012C02AC029C028C027C026C03BC124C0B6
:1000100023C022C021C020C01FC01EC01DC01CC0E4
:100020001BC01AC019C011241FBECFEDCDBF10E0F8
:10003000A0E6B0E0ECE9F6E002C005900D92A4382D
:10004000B107D9F710E0A4E8B0E001C01D92A239D1
:10005000B107E1F76CD220C3D3CFF89497B3982BB4
:1000600097BB98B3282F2095922398BBE4EFF1E03B
:100070003197F1F797B3292327BB95E39A95F1F7C9
:1000800097B3E0EFF0E03197F1F7789420E0982310
:1000900009F421E0822F0895382FF89420E090E0B1
:1000A000482F40955DE060E587B3832B87BB88B31D
:1000B000842388BB852F8A95F1F787B3842387BB78
:1000C000852F8A95F1F786B3832309F080E896950A
:1000D000982B862F8A95F1F72F5F283029F778948F
:1000E000892F0895382FF89420E0982F90955DE09F
:1000F00042E487B3832B87BB88B3892388BB60FD29
:1001000008C0842F8A95F1F787B3892387BB852F91
:1001100007C0852F8A95F1F787B3892387BB842F82
:100120008A95F1F72F5F283011F06695E2CF789429
:1001300008951F93182F6CECD5DF812F64E4D2DF74
:100140001F9108951F93182F6CECCCDF812F6EEB5D
:10015000C9DF1F91089587B3876087BB88B3887F05
:1001600088BB08950CC027FF02C0C09A01C0C09888
:10017000C19AC198220F3F5F3830A9F720836150A0
:10018000653030F4FC01E60FF11D208130E0EBCF4B
:100190000895C29AC2980895E82F80538A3028F4AF
:1001A000F0E0E05DFF4F808108958E2F81548A3109
:1001B00028F080528A3110F080E00895EF7DF0E061
:1001C000E75DFF4F80810895AC01DC0190E019C02C
:1001D000EC918E2F80538A3020F4F0E0E05DFF4FE9
:1001E0000DC08E2F81548A3128F080528A3110F050
:1001F00080E005C0EF7DF0E0E75DFF4F80818D93EB
:100200009F5F961728F3CA01089510BE85E083BF4B
:1002100012BE89B7826089BF7894089588E01DDF97
:1002200080E11BDF88E085DF80E183DF089588E0DF
:1002300014DF80E112DF88E085DF80E183DF88E082
:100240002BDF8093860080E127DF8093880088E0A1
:1002500023DF8093870080E11FDF809389008091F6
:100260008700882329F080918600819580938600FD
:1002700080918900882329F080918800819580935E
:10028000880008951F920F920FB60F9211242F939A
:100290006F937F938F939F93809184008F5F809360
:1002A000840080918D0080FD03C0816080938D006B
:1002B00020918D0020FF09C0809184006BE09DD1CA
:1002C000992319F4226020938D0080918D0084FD84
:1002D0000CC0809B0AC080918D00846080938D004B
:1002E000809184008A5B80938C0080918D0088745B
:1002F000883089F480918700882341F480918600BA
:10030000882349F480918700882329F480918D0007
:10031000806880938D0080918D0087FF1BC0809145
:1003200084006AE06AD1992349F482B398E089276E
:1003300082BB809185008F5F8093850080918500CE
:10034000863040F080918D008F77806480938D009F
:100350001092850090918D0096FF0BC080918700D0
:10036000882339F480918600843018F09F7B909325
:100370008D009F918F917F916F912F910F900FBE64
:100380000F901F901895FF920F931F93182FF62E22
:10039000042F8A3020F090E06FE870E003C090E016
:1003A00060E970E04AE050E034D1002311F085E3C9
:1003B00001C080E3809391008EE890E064E004DF68
:1003C000809190008F77809390001A3040F0FF204A
:1003D00011F48FEF01C08FEB80938E000AC09091D3
:1003E0008F00FF2011F48FEF01C08FEB892B8093DA
:1003F0008F008EE890E064E070E0B4DEC29AC298AC
:100400001F910F91FF900895FF920F931F93CF9329
:10041000DF9380918D00806180938D001091840026
:100420001A5BC4E6D0E086E0F82E08E747C0819B5F
:1004300010C080918A008F5F80938A002091840091
:100440008CED95E0FE013197F1F70197D9F7122F66
:100450001A5B829B10C080918A00815080938A0031
:10046000209184008CED95E0FE013197F1F7019722
:10047000D9F7122F1A5B80918A00893710F0F09219
:100480008A0080918A00863010F400938A0080915F
:100490008A0060918B0040918A004170869573DFDD
:1004A00080918400181751F480918D008F7E809385
:1004B0008D0080918D00806280938D0080918D00F1
:1004C00084FDB5CFDF91CF911F910F91FF900895DB
:1004D00080918D0082FD10C0809184006FE08DD0EE
:1004E000992321F5809188006091890040918800CE
:1004F0004170869548DF0895809184006FE07DD03B
:10050000992349F48091860060918700409186008C
:100510004170869538DF9091840080918C00981707
:1005200029F480918D008B7F80938D000895CF9367
:10053000DF9388E281BB82B3877D82BB87B387600C
:1005400087BB88B3887F88BB80918D00847F809330
:100550008D008EE280938A0010928B0010BE85E0A1
:1005600083BF12BE89B7826089BF7894C4E6D0E0A9
:1005700080918D0080FD52DE80918D0081FF07C04B
:1005800056DE80918D008C7F886080938D008091F5
:100590008D0083FD9DDF819902C0829B08C08CED98
:1005A00095E0FE013197F1F70197D9F72DDF849B94
:1005B00022C090918A0080918800891738F090912C
:1005C0008B0080918900981709F4959A80918A0090
:1005D0002091880090E0059730E02817390724F033
:1005E00080918D0085FFC4CF959880918D008F7D7F
:1005F00080938D00BDCF9598BBCF991B79E004C047
:10060000991F961708F0961B881F7A95C9F7809551
:100610000895FB019F01E8944230BCF04532ACF4F0
:100620004A3029F497FB1EF4909581959F4F642FD3
:1006300077271ED0805D8A330CF0895D8193CB01D2
:100640000097A9F716F45DE251931082C90100C02A
:10065000DC01FC01672F71917723E1F7329704C029
:100660007C916D9370836291AE17BF07C8F30895B4
:10067000AA1BBB1B51E107C0AA1FBB1FA617B707C8
:1006800010F0A61BB70B881F991F5A95A9F78095E4
:0C0690009095BC01CD010895F894FFCFB7
:10069C00C0F9A4B0999282D880908880C6A1868E29
:1006AC00C289CFE18AC7AAABA38C98AF9287E3D556
:0406BC00958991A4E7
:00000001FF
