:100000003AC058C151C050C04FC04EC04DC04CC086
:100010004BC04AC049C048C047C046C045C044C0A4
:1000200043C042C041C00403090412036F006200D0
:100030006400650076002E006100740016034C0019
:100040004500440043006F006E00740072006F00B2
:100050006C0012011001FF000008C016DC05000151
:1000600001020001090212000101008014090400CC
:1000700000000000000011241FBECFEDCDBF10E036
:10008000A0E6B0E0EAEAF5E002C005900D92A236E3
:10009000B107D9F710E0A2E6B0E001C01D92A13986
:1000A000B107E1F765D27FC2ABCF85B7826085BF6C
:1000B0008BB780648BBF08951F93CF93DF9390918C
:1000C0007700935097FD82C0209174008091730057
:1000D0008D3209F079C0983009F076C0CCE0D0E0DC
:1000E000C21BD109C558DF4F83EC809367008AE5B6
:1000F00080936000109262008881807621F0CE01AA
:1001000006D2282F58C09A811092700089818823C6
:1001100021F41092710022E048C0853019F49093C8
:10012000780042C0863089F58B81813019F482E5F0
:1001300090E016C0823019F484E690E011C083305C
:10014000F9F48A81882341F486E290E09093760066
:100150008093750024E015C0813041F48AE290E07C
:10016000909376008093750022E10BC0823041F4B9
:100170008CE390E0909376008093750026E101C0B7
:1001800020E080E48093620016C0883021F421E0F2
:100190008AE790E00CC0893019F490937A0004C08B
:1001A0008A3011F421E001C020E080E790E09093D4
:1001B0007600809375008F81882321F48E818217C9
:1001C00008F4282F2093610010927700809160003E
:1001D00084FF49C0809161008F3F09F444C0182F0B
:1001E000893008F018E0811B8093610080916700DE
:1001F00098E8892780936700112341F120917500C9
:10020000309176008091620086FF0DC0A8E6B0E0D4
:1002100080E090E0F901E80FF91FE491ED93019679
:100220001817C1F708C0912FD901E8E6F0E08D91C9
:1002300081939150E1F71150812F90E01F5F01965B
:10024000820F931F909376008093750088E690E06C
:10025000612F2CD0612F6C5F6C3019F08FEF809381
:1002600061006093600094E180B38C7031F4915030
:10027000D9F71092780010927200DF91CF911F9100
:100280000895A82FB92F80E090E041E050EA6095F2
:1002900030E009C02D9182279795879510F084272B
:1002A0009527305EC8F36F5FA8F30895EADF8D935A
:1002B0009D930895CF93CFB7CF93C395839BE9F7D1
:1002C000839B09C0839B07C0839B05C0839B03C09E
:1002D000839B01C0A1C0DF93C0917400DD27C55886
:1002E000DF4F839B02C0DF91EBCF2F930F931F93C0
:1002F00000B32FEF03FB20F94F933F9310B34FEF61
:10030000012703FB21F93BE031C04E7F012F10B3E1
:10031000216028C0102F4D7F2260000000B329C04B
:100320004B7F2460012F000010B32BC010B3477F18
:1003300028602AC04F7E00B320612CC04F7D10B3CF
:1003400020622FC04F7B00B3206432C0422700B32D
:1003500049934FEF0000102713FB20F910B31C70D6
:10036000C9F1297F91F2012703FB21F900B3237F13
:1003700089F2315058F1102713FB22F910B3277E70
:1003800079F2012703FB23F92F7C81F200B31027B8
:1003900013FB24F92F7971F200C010B3012703FB7E
:1003A00025F92F7359F200C000B3102713FB26F96B
:1003B000223040F200C010B3012703FB27F924309C
:1003C00028F64F77206810B30000F9CF10E41ABF69
:1003D000002717C03B503195C31BD04010E41ABF13
:1003E0000881033CE9F00B34D9F0209172001981A7
:1003F000110F1213EDCF093641F10D3211F0013E0C
:1004000039F7009379003F914F911F910F912F91F0
:10041000DF91CAB7C6FD51CFCF91CFBFCF9118950D
:1004200020917900222379F310917700112311F59F
:10043000343012F1309377002093730010917400E0
:100440003BE0311B3093740017C0009177000130FE
:100450008CF40AE53091600034FD10C00093600018
:10046000C7E6D0E00FC02795A8F45150A9F4220F99
:100470000000F9CF4AE503C042ED01C0432FC4E1BB
:10048000D0E032E011B31C60939A11BB02B320E4B8
:100490001CE05F93012756E002BB279520F45150E2
:1004A00021F4220FF9CF012756E000003B5A02BB8E
:1004B000D0F2279528F4515029F4220F0000F9CFEB
:1004C000012756E0279502BB20F4515021F4220F5A
:1004D000F9CF012756E02991332302BB21F6037F90
:1004E00010917800110FC651D04002BB11F010934B
:1004F000720010E41ABF086011B3137F402F437FCE
:100500005F9100C000C002BB11BB42BB7CCFFC01AD
:1005100081818823A1F48281809363008381809309
:10052000640084818093650085818093660083E602
:1005300090E0909376008093750084E00895813078
:1005400039F4828180FF02C0C09A04C0C09802C002
:10055000823011F080E0089588B381708093630049
:1005600083E690E0909376008093750081E0089593
:100570002EE088E190E00FB6F894A89581BD0FBEFB
:1005800021BD93DD8B9A20E048EB5BE004C0A89589
:10059000CA010197F1F72150D1F78B98B89A789456
:0A05A000A8958ADDFDCFF894FFCF87
:0205AA005AFFF6
:00000001FF
