:1000000012C02AC029C028C027C026C025C024C0CD
:1000100023C022C021C020C01FC01EC01DC01CC0E4
:100020001BC01AC019C011241FBECFEDCDBF10E0F8
:10003000A0E6B0E0E6ECF0E002C005900D92A0363C
:10004000B107D9F710E0A0E6B0E001C01D92A036DC
:10005000B107E1F725D035C0D3CF5D9BFECF8CB97A
:1000600008955F9BFECF8CB1089512B887E689B9D9
:1000700088E18AB986E083B9089541E050E064E6FA
:1000800070E00AC028EE33E0FB013197F1F7215010
:100090003040D1F74F5F5F4F841795079CF7089565
:1000A0008D9A12B887E689B988E18AB986E083B962
:1000B0005F9BFECF8CB1853511F4959AF9CF959859
:0600C000F7CFF894FFCF1A
:00000001FF
