:1000000012C017C016C015C014C013C012C011C052
:1000100010C00FC00EC00DC00CC00BC00AC009C07C
:1000200008C007C006C011241FBECFEDCDBFA1D0B0
:100030004EC1E6CF8E9A96988FEF0027182F039522
:1000400000000000000000000117C9F78E9884E14D
:100050000027182F03950000000000000000011782
:10006000C9F781B398E70027192F03950000000016
:10007000000000000117C9F7829586958695837068
:1000800080958170089520E080E035E04EE18E9A01
:1000900096980027132F0395000000000000000031
:1000A0000117C9F78E980027132F03950000000051
:1000B000000000000117C9F7869902C090E001C056
:1000C00090E88695892B0027142F039500000000E7
:1000D000000000000117C9F72F5F283009F0D7CFC3
:1000E000089590E035E029E18E9A969880FD14C03D
:1000F0000027122F039500000000000000000117E8
:10010000C9F78E980027132F039500000000000008
:1001100000000117C9F713C00027132F0395000033
:100120000000000000000117C9F78E980027122F69
:10013000039500000000000000000117C9F79F5F51
:10014000983011F08695D0CF08958CECCADF84E406
:10015000C8DF08958CECC5DF8EEBC3DF0895002760
:10016000182F039500000000000000000117C9F7D8
:100170000895EF92FF920F931F93CF93DF9312B8DE
:100180008CE089B988E18AB986E083B9FF24FA94C2
:1001900004E118E7C4E6D0E080E2E82E8E9A969853
:1001A00000271F2D0395000000000000000001172C
:1001B000C9F78E980027102F03950000000000005B
:1001C00000000117C9F781B30027112F0395000024
:1001D0000000000000000117C9F7B7DF80ED97E0CD
:1001E000FE013197F1F70197D9F780ED97E0FE0115
:1001F0003197F1F70197D9F780ED97E0FE0131973C
:10020000F1F70197D9F78E9A969800271F2D03953D
:1002100000000000000000000117C9F78E980027B9
:10022000102F039500000000000000000117C9F71F
:1002300081B30027112F039500000000000000008B
:100240000117C9F787DF1FDF982F8E9A969800272E
:100250001F2D039500000000000000000117C9F7E2
:100260008E980027102F039500000000000000006A
:100270000117C9F781B30027112F03950000000073
:10028000000000000117C9F720E030E05D9BFECFC1
:10029000892F8170805D8CB92F5F3F4F28303105E9
:1002A00011F09695F3CF5D9BFECFECB877CF5D9BB9
:1002B000FECF8CB908955F9BFECF8CB1089512B824
:1002C0008CE089B988E18AB986E083B90895F89409
:0202D000FFCF5E
:00000001FF
