:100000000C9434000C943E000C943E000C943E0082
:100010000C943E000C943E000C943E000C943E0068
:100020000C943E000C943E000C943E000C943E0058
:100030000C943E000C943E000C943E000C943E0048
:100040000C9440000C943E000C943E000C943E0036
:100050000C943E000C943E000C943E000C943E0028
:100060000C943E000C943E0011241FBECFEFD4E050
:10007000DEBFCDBF0E9450000C9459000C940000CC
:100080001F920F920FB60F9211248F938AB1809511
:100090008AB916BC8F910F900FBE0F901F901895C4
:1000A00014BC83E085BD16BC81E080936E0078941B
:0600B000FFCFF894FFCF22
:00000001FF
