:1000000009C021C020C01FC01EC01DC01CC01BC015
:100010001AC07FC011241FBECFE9CDBF10E0A0E6FB
:10002000B0E0E4E7F1E002C005900D92A438B1071A
:10003000D9F710E0A4E8B0E001C01D92A638B107DE
:10004000E1F779D095C0DCCF87B3836087BB88B3F5
:100050008C7F88BB089590E087FF02C0C19A01C0E1
:10006000C198C09AC0989F5F983011F0880FF4CF64
:1000700008950F931F93082F10E003C080E0EBDF7B
:100080001F5F1017D8F31F910F910895CF92DF9241
:10009000EF92FF920F931F93CF93DF936C0100E0D9
:1000A000C62FD0E021970BC010E07601EE0EFF1EA8
:1000B000F7018081D0DF1F5F1830D1F70F5FE02F8D
:1000C000F0E0EC17FD0784F3EC0DFD1D8081C3DF2C
:1000D000DF91CF911F910F91FF90EF90DF90CF9024
:1000E0000895E82F80538A3028F4F0E0E05DFF4F58
:1000F000808108958E2F81548A3128F080528A3170
:1001000010F080E00895EF7DF0E0E75DFF4F808123
:1001100008951F920F920FB60F9211248F9384B1FE
:100120008093840085B1809385008F910F900FBEDE
:100130000F901F901895CF93DF93BA9887B3836081
:1001400087BB88B38C7F88BB389A86B18E6A86B9A4
:100150007894369AC8E7D0E084E890E062E096DFD1
:1001600080E29EE4FE013197F1F70197D9F7F4CFD1
:04017000F894FFCF31
:100174003F065B4F666D7D277F6F777F395E7971B0
:100184003D76301E753855545C7367506D781C2A63
:040194006A766E5BBE
:00000001FF
