:1000000012C02AC029C028C027C026C025C024C0CD
:1000100023C022C021C020C01FC01EC01DC01CC0E4
:100020001BC01AC019C011241FBECFEDCDBF10E0F8
:10003000A0E6B0E0EAE5F1E002C005900D92A43838
:10004000B107D9F710E0A4E8B0E001C01D92A438D0
:10005000B107E1F767D07FC0D3CF87B3866087BB96
:1000600088B3897F88BB089590E087FF02C0C29A59
:1000700001C0C298C19AC1989F5F983011F0880F53
:10008000F4CF08950F931F93082F10E003C080E072
:10009000EBDF1F5F1017D8F31F910F910895CF92D8
:1000A000DF92EF92FF920F931F93CF93DF936C0138
:1000B00000E0C62FD0E021970BC010E07601EE0ED5
:1000C000FF1EF7018081D0DF1F5F1830D1F70F5F6F
:1000D000E02FF0E0EC17FD0784F3EC0DFD1D8081AF
:1000E000C3DFDF91CF911F910F91FF90EF90DF90D1
:1000F000CF900895E82F80538A3028F4F0E0E05D37
:10010000FF4F808108958E2F81548A3128F08052CC
:100110008A3110F080E00895EF7DF0E0E75DFF4F59
:1001200080810895DF93CF9300D00F92CDB7DEB7D3
:1001300087B3866087BB88B3897F88BB80916C005A
:10014000806889838091630080688A83CE010196EC
:0A01500062E0A5DFFFCFF894FFCFB7
:10015A003F065B4F66677D277F6F777F395E7971D0
:10016A003D76301E753855545C7367506D781C2A7D
:04017A006A766E5BD8
:00000001FF
