:1000000012C019C018C017C016C015C014C013C044
:1000100012C011C010C00FC00EC00DC00CC00BC06C
:100020000AC009C008C011241FBECFE5D4E0DEBF5E
:10003000CDBF02D023C0E4CF00270BB900BD08E13B
:100040000AB906E800BD0CE009B95F9BFECF8CB190
:100050005D9BFECF8CB9F9CF5D9BFECF8CB9089527
:100060005F9BFECF8CB1089500270BB900BD08E15E
:100070000AB906E800BD0CE009B90895F894FFCF6D
:00000001FF
