:100000000C9434000C9451000C9451000C94510049
:100010000C9451000C9451000C9451000C9451001C
:100020000C9451000C9451000C9451000C9451000C
:100030000C9451000C9451000C9451000C945100FC
:100040000C9451000C9451000C9451000C945100EC
:100050000C9451000C9451000C9451000C945100DC
:100060000C9451000C94510011241FBECFEFD4E02A
:10007000DEBFCDBF11E0A0E0B1E0EAE5FEE002C0E6
:1000800005900D92A43EB107D9F712E0A4EEB1E0BD
:1000900001C01D92AF31B107E1F70E941D040C941D
:1000A0002B070C940000579A5F9888EE93E0019715
:1000B000F1F757988AE68A95F1F78AB1E0EEF1E018
:1000C0003197F1F78095881F8827881F089520E0D1
:1000D00090E03AE140EA579A5F98832F8A95F1F7CA
:1000E0005798832F8A95F1F789B196958078982B48
:1000F000842F8A95F1F72F5F283069F7892F0895AB
:1001000020E04AE135E8579A5F9880FD06C0932FBA
:100110009A95F1F75798942F05C0942F9A95F1F777
:100120005798932F9A95F1F72F5F283011F0869505
:10013000EACF08958CEC0E94800084E40E94800045
:1001400008958CEC0E9480008EEB0E948000089540
:1001500056985598000000004D9B0EC04E9B0CC059
:100160008DE0982F9A95F1F7559A5D988A95F1F759
:10017000569A5E9881E0089580E00895559A5D98BA
:10018000569A5E988AE18A95F1F756988DE08A959D
:10019000F1F75598089520E04AE13DE087FD03C05E
:1001A000559A5D9801C05598942F9A95F1F75698F5
:1001B000932F9A95F1F74E9BFECF932F9A95F1F7D7
:1001C000569A5E982F5F283011F0880FE7CF559828
:1001D0008DE08A95F1F756988AE18A95F1F789B111
:1001E000569A5E988295869587708095817008955D
:1001F00090E020E04DE03AE1220F56984E9BFECF72
:10020000842F8A95F1F74D992160832F8A95F1F714
:10021000569A5E98832F8A95F1F79F5F983061F721
:1002200055988DE0982F9A95F1F756989AE19A95FE
:10023000F1F7569A5E98982F9A95F1F755988A9506
:10024000F1F7822F08950F931F93182F062F0E9406
:10025000A80080ED0E94CB00812F0E94CB00802F50
:100260000E94CB000E94BE001F910F9108951F9322
:10027000182F0E94A80080ED0E94CB00812F0E94C1
:10028000CB000E94A80081ED0E94CB000E94F800E4
:10029000182F0E94BE00812F1F910895282F207FC4
:1002A00025B9289A2A9A20ED37E0F9013197F1F71C
:1002B0002A982898F9013197F1F790E044E0880FE7
:1002C000991F4A95E1F785B9289A2A9AC901019799
:1002D000F1F72A982898C9010197F1F70895282F76
:1002E000207F25B92A9A20ED37E0F9013197F1F7FF
:1002F0002A98F9013197F1F790E054E0880F991F9F
:100300005A95E1F785B92A9AC9010197F1F72A9818
:10031000C9010197F1F7089580E395E70197F1F797
:1003200015B815B884B1806F84B984B1876084B979
:1003300080E385B92A9A20ED37E0F9013197F1F78A
:100340002A98F9013197F1F785B92A9AC9010197DD
:10035000F1F72A98C9010197F1F780E285B92A9A45
:10036000C9010197F1F72A98C9010197F1F788E2CD
:100370000E946F018EE00E946F01089581E00E944B
:100380006F01089582E00E946F0108950F931F93FB
:10039000CF93DF93062F009749F0EC0110E004C0E3
:1003A00089910E944E011F5F1017D0F3DF91CF910A
:1003B0001F910F910895623031F0633031F0613058
:1003C00029F4805C03C08C5E01C08C5A80680E9456
:1003D0006F0108951F93CF93DF93EC01862F642F55
:1003E0000E94DB0110E003C00E944E011F5FFE016E
:1003F000E10FF11D84918823B9F7DF91CF911F910F
:100400000895EF92FF920F931F93CF93DF937C0198
:10041000162F110F110F110F1064C0E0D0E0F7017B
:10042000EC0FFD1F0491812F8C0F0E946F01802F14
:100430000E944E012196C830D10589F7DF91CF91F6
:100440001F910F91FF90EF9008950F931F93082F26
:1004500010E004C08EE10E946F011F5F1017D0F3FF
:100460001F910F9108950F931F93082F10E004C060
:1004700088E10E946F011F5F1017D0F31F910F9149
:1004800008958EE00E946F0108958FE00E946F0131
:1004900008958CE00E946F01089588E00E946F012A
:1004A00008958CE00E946F0108950F931F93082F09
:1004B00010E004C080E10E946F011F5F1017D0F3AD
:1004C0001F910F9108950F931F93082F10E004C000
:1004D00084E10E946F011F5F1017D0F31F910F91ED
:1004E000089580E00E943701682F809306026068BB
:1004F00080E00E942301089580E00E943701682F68
:10050000809306026F7780E00E9423010895282FD0
:100510006AE00E94C106382F3295307F822F0E94F8
:10052000C106832F890F0895282F22952F709AE0F6
:10053000299F900111248F70820F089530910B0232
:10054000832F82958F702AE0829FC0011124932F00
:100550009F70980F892F20E001C02F5F8450E9F72A
:10056000892F8A5F820F01C087508830E8F73323D4
:1005700011F4A6E002C0A82FA15080910A02282FF2
:1005800022952F709AE0299F900111248F70820F7D
:10059000482F50E04150504030E060E070E0BAE059
:1005A0000EC0E952FE4F2081822F82958F708B9F63
:1005B000C00111242F70280F620F711D3F5FE32FC0
:1005C000F0E0E417F5076CF380910902282F2295DB
:1005D0002F709AE0299F900111248F70820F482F6D
:1005E00050E04A0F511D460F571F3AE002C04750D6
:1005F0005040242F842F82958F70839FC001112437
:100600002F70280F283098F740930C020895DF923E
:10061000EF92FF920F931F93DF93CF930F92CDB77B
:10062000DEB7579A5F9888EE93E00197F1F75798F5
:100630008AE68A95F1F78AB180EE91E00197F1F7A9
:100640000E949A0099ECE92E91E0F92E90E0D701F2
:100650000D911D917D01892F99830E943701F80129
:10066000808399819F5F973091F70E949E028DB79A
:100670009EB70C970FB6F8949EBF0FBE8DBFADB757
:10068000BEB7119604EF11E0EDB7FEB712830183F8
:1006900080E091E013969C938E931297E0910C0268
:1006A000F0E0EE0FFF1FEF5BFE4F8081918115960A
:1006B0009C938E9314978091090216968C931697AB
:1006C00017961C92179780910A0218968C93189788
:1006D00019961C92199780910B021A968C931A976F
:1006E0001B961C920E942004EDB7FEB73196005174
:1006F0001040ADB7BEB712961C930E93119785E1CB
:1007000091E0938382838091080284831582809193
:100710000702868317828091060280871186809166
:100720000502828713860E94200420ED37E0EDB792
:10073000FEB73C960FB6F894FEBF0FBEEDBF48EC77
:1007400050E0CA010197F1F721503040D1F780ED18
:1007500097E028EC30E0F9013197F1F70197D9F7EC
:10076000579A5F9878EEE72E73E0F72EC70101974E
:10077000F1F757986AE6D62E8D2D8A95F1F78AB152
:1007800000EE11E0C8010197F1F70E94A1000E945C
:100790006700809305020E946700579A5F98C7011F
:1007A0000197F1F75798DA94F1F78AB1C8010197E8
:1007B000F1F710920D028091050290E080959095DE
:1007C00062E070E00E94CD066095609305020F9094
:1007D000CF91DF911F910F91FF90EF90DF900895DF
:1007E0000F931F930E9407030E94C20104EE11E0C1
:1007F000F80101900020E9F73197E01BF10BC801E7
:100800006E2F0E94C6018FED0E944E0183E40E946C
:100810004E0180E061E00E94DB01005F1F4FF801A4
:1008200001900020E9F73197E01BF10BC8016E2F12
:100830000E94C6011F910F9108950E94F003FDCF01
:10084000AEE0B0E0E6E2F4E00C9402070D891E8908
:1008500086E08C831A8309838FEF9FE79E838D83C5
:100860009E01275E3F4FCE0101966F89788DA901C9
:100870000E9444042F813885020F131FF801108253
:100880002E96E4E00C941E07ABE0B0E0EAE4F4E05E
:100890000C94F4063C012B015A01FC0117821682CC
:1008A000838181FD03C06FEF7FEFC6C19AE0892E7F
:1008B0001E010894211C311CF3012381F20123FD48
:1008C000859123FF81912F01882309F4B2C18532DC
:1008D00039F423FD859123FF81912F01853229F47D
:1008E00090E0B3010E943706E7CF982FFF24EE2453
:1008F0009924FFE1FF15D0F09B3269F09C3228F477
:10090000903259F0933291F40EC09D3249F09033F9
:1009100069F441E024C052E0F52A84E0F82A28C0B6
:1009200098E0F92A25C0E0E1FE2A22C0F7FC29C0A0
:10093000892F80538A3070F4F6FE05C0989C902C65
:100940001124980E15C0E89CE02C1124E80EF0E26A
:10095000FF2A0EC09E3229F4F6FC6BC140E4F42A53
:1009600007C09C3619F450E8F52A02C0983649F4BD
:10097000F20123FD959123FF91912F01992309F015
:10098000B8CF892F8554833018F08052833038F4E3
:1009900044E050E0A40EB51E5FE359830FC09336C8
:1009A00031F0933779F0933509F056C020C0F50146
:1009B0008081898342E050E0A40EB51E610101E010
:1009C00010E012C0F501C080D180F6FC03C06FEFCB
:1009D0007FEF02C0692D70E042E050E0A40EB51E2A
:1009E000C6010E942C068C015FE7F52214C0F501B8
:1009F000C080D180F6FC03C06FEF7FEF02C0692D8D
:100A000070E042E050E0A40EB51EC6010E9421062F
:100A10008C0150E8F52AF3FE07C01AC080E290E08E
:100A2000B3010E943706EA948E2D90E0081719074B
:100A3000A8F30EC0F601F7FC8591F7FE81916F01D6
:100A400090E0B3010E943706E110EA940150104093
:100A50000115110579F7EAC0943611F0993669F558
:100A6000F7FE08C0F501208131814281538184E085
:100A700090E00AC0F501808191819C01442737FDF7
:100A80004095542F82E090E0A80EB91E9FE6F9220F
:100A900057FF09C050954095309521953F4F4F4FD6
:100AA0005F4FE0E8FE2ACA01B901A1012AE030E067
:100AB0000E946306D82ED21840C0953729F41F2D06
:100AC0001F7E2AE030E01DC01F2D197F9F3661F088
:100AD000903720F4983509F0ACC00FC0903739F04A
:100AE000983709F0A6C004C028E030E00AC01061C1
:100AF00014FD146020E130E004C014FD166020E114
:100B000032E017FF08C0F501608171818281938115
:100B100044E050E008C0F50180819181BC0180E093
:100B200090E042E050E0A40EB51EA1010E946306D1
:100B3000D82ED2188FE7F82EF122F6FE0BC05EEF0A
:100B4000F522D91438F4F4FE07C0F2FC05C08FEE8C
:100B5000F82202C01D2D01C0192DF4FE0DC0FE01AA
:100B6000ED0DF11D8081803319F499EEF92208C052
:100B70001F5FF2FE05C003C08F2D867809F01F5F4E
:100B80000F2DF3FC14C0F0FE0FC01E1510F09D2CAD
:100B90000BC09D2C9E0C911A1E2D06C080E290E089
:100BA000B3010E9437061F5F1E15C0F304C01E1557
:100BB00010F4E11A01C0EE2404FF0FC080E390E0BE
:100BC000B3010E94370602FF1DC001FD03C088E784
:100BD00090E00EC088E590E00BC0802F867891F001
:100BE00001FF02C08BE201C080E2F7FC8DE290E0E1
:100BF000B3010E94370606C080E390E0B3010E9473
:100C000037069A94D914C0F3DA94F101ED0DF11D71
:100C1000808190E0B3010E943706DD20A9F706C06D
:100C200080E290E0B3010E943706EA94EE20C1F71B
:100C300043CEF30166817781CB012B96E2E10C94E0
:100C40001007FC010590615070400110D8F78095A5
:100C500090958E0F9F1F0895FC0161507040019088
:100C60000110D8F7809590958E0F9F1F08950F93D0
:100C70001F93CF93DF938C01EB018B8181FF1BC00E
:100C800082FF0DC02E813F818C819D8128173907FD
:100C900064F4E881F9810193F983E88306C0E8856B
:100CA000F985802F0995892B31F48E819F810196DA
:100CB0009F838E8302C00FEF1FEFC801DF91CF919A
:100CC0001F910F910895FA01AA27283051F1203180
:100CD00081F1E8946F936E7F6E5F7F4F8F4F9F4FD0
:100CE000AF4FB1E03ED0B4E03CD0670F781F891F12
:100CF0009A1FA11D680F791F8A1F911DA11D6A0FE0
:100D0000711D811D911DA11D20D009F468943F9192
:100D10002AE0269F11243019305D3193DEF6CF0191
:100D20000895462F4770405D4193B3E00FD0C9F757
:100D3000F6CF462F4F70405D4A3318F0495D31FDC4
:100D40004052419302D0A9F7EACFB4E0A695979517
:100D5000879577956795BA95C9F7009761057105ED
:100D600008959B01AC010A2E069457954795379537
:100D70002795BA95C9F7620F731F841F951FA01D91
:100D80000895991B79E004C0991F961708F0961BE7
:100D9000881F7A95C9F78095089597FB092E072635
:100DA0000AD077FD04D00CD006D000201AF470953C
:100DB00061957F4F0895F6F7909581959F4F08951F
:100DC000AA1BBB1B51E107C0AA1FBB1FA617B70771
:100DD00010F0A61BB70B881F991F5A95A9F780958D
:100DE0009095BC01CD0108952F923F924F925F9252
:100DF0006F927F928F929F92AF92BF92CF92DF922B
:100E0000EF92FF920F931F93CF93DF93CDB7DEB78F
:100E1000CA1BDB0B0FB6F894DEBF0FBECDBF099423
:100E20002A88398848885F846E847D848C849B847A
:100E3000AA84B984C884DF80EE80FD800C811B8188
:100E4000AA81B981CE0FD11D0FB6F894DEBF0FBEB7
:0A0E5000CDBFED010895F894FFCF27
:100E5A0025337320202532782E2532782E20323001
:100E6A0025303278002532783A253032783A2530E2
:100E7A003278252B366400506F20005574200053B9
:100E8A007472005374760050696100536F20004EEB
:100E9A0065200027012B012F01330137013B013F58
:100EAA000153656B3A20253032782028302D257879
:100EBA002920004D696E3A20253032782028302DBD
:100ECA002578292000486F643A2025303278202876
:100EDA00302D257829200044656E3A202530327855
:100EEA002028312D25782920004D65733A20253098
:100EFA0032782028312D2578292000526F6B3A202C
:100F0A00253032782028302D257829200051016398
:100F1A0001750187019901AB010602070208020C5B
:100F2A000209020A020B02312831303130313130E4
:040F3A003130310021
:00000001FF
