:100000004CC0B4C163C062C061C060C05FC05EC0AC
:100010005DC05CC05BC05AC059C058C057C056C014
:1000200055C054C053C00403090412036F0062009A
:100030006400650076002E006100740014034C001B
:1000400045004400430074006C004800490044002F
:100050001201100100000008C016DF0500010102B6
:1000600000010902220001010080140904000001BE
:10007000030000000921010100012216000705818B
:10008000030800640600FF0901A101150026FF0016
:10009000750895010900B20201C011241FBECFED01
:1000A000CDBF10E0A0E6B0E0EAE5F6E002C00590C2
:1000B0000D92A236B107D9F710E0A2E6B0E001C078
:1000C0001D92AA39B107E1F7ABD2C5C299CF85B766
:1000D000826085BF8BB780648BBF8BE48093700098
:1000E0008AE580936F0008951F93CF93DF939091DB
:1000F0008000935097FDA4C020917D0080917C00EA
:100100008D3209F09BC0983009F098C0CCE0D0E067
:10011000C21BD109CC57DF4F83EC809364008AE582
:1001200080936000109262008881807621F0CE0179
:1001300057D2282F7AC09A8110926D008981882326
:1001400031F410926E008DE690E022E06AC08530B6
:1001500019F49093810062C0863009F04AC08B8107
:10016000813019F480E590E01BC0823041F482E6D2
:1001700090E090937F0080937E0022E236C083302F
:10018000F9F48A81882341F486E290E090937F001D
:1001900080937E0024E029C0813041F48AE290E01F
:1001A00090937F0080937E0022E11FC08230E1F4B3
:1001B0008CE390E090937F0080937E0024E115C053
:1001C000813241F484E790E090937F0080937E0039
:1001D00029E00BC0823241F484E890E090937F00E4
:1001E00080937E0026E101C020E080E480936200DD
:1001F0001CC0883019F483E890E009C0893019F4F4
:10020000909383000BC08A3021F48DE690E021E0CA
:1002100008C08B3019F48BE4809370008DE690E079
:1002200020E090937F0080937E008F81882321F4CB
:100230008E81821708F4282F20936100109280008D
:100240008091600084FF49C0809161008F3F09F474
:1002500044C0182F893008F018E0811B809361009A
:100260008091640098E8892780936400112341F10C
:1002700020917E0030917F008091620086FF0DC04A
:10028000A5E6B0E080E090E0F901E80FF91FE49105
:10029000ED9301961817C1F708C0912FD901E5E633
:1002A000F0E08D9181939150E1F71150812F90E012
:1002B0001F5F0196820F931F90937F0080937E00B3
:1002C00085E690E0612F4ED0612F6C5F6C3019F0A5
:1002D0008FEF809361006093600094E180B38C7035
:1002E00031F49150D9F71092810010927B00DF9188
:1002F000CF911F9108951F93DC01162F80916F00FD
:1003000084FF07C08091700098E88927809370006F
:1003100003C08AE580936F00912FE1E7F0E08D91B3
:10032000819391501916DCF381E790E0612F1AD088
:100330001C5F10936F001F910895A82FB92F80E0C4
:1003400090E041E050EA609530E009C02D918227AD
:100350009795879510F084279527305EC8F36F5FD7
:10036000A8F30895EADF8D939D930895CF93CFB7B7
:10037000CF93C395839BE9F7839B09C0839B07C0F9
:10038000839B05C0839B03C0839B01C0A3C0DF93F5
:10039000C0917D00DD27CC57DF4F839B02C0DF91EA
:1003A000EBCF2F930F931F9300B32FEF03FB20F995
:1003B0004F933F9310B34FEF012703FB21F93BE02D
:1003C00031C04E7F012F10B3216028C0102F4D7F08
:1003D0002260000000B329C04B7F2460012F000081
:1003E00010B32BC010B3477F28602AC04F7E00B3E4
:1003F00020612CC04F7D10B320622FC04F7B00B313
:10040000206432C0422700B349934FEF0000102709
:1004100013FB20F910B31C70C9F1297F91F2012759
:1004200003FB21F900B3237F89F2315058F11027E3
:1004300013FB22F910B3277E79F2012703FB23F97E
:100440002F7C81F200B3102713FB24F92F7971F26E
:1004500000C010B3012703FB25F92F7359F200C028
:1004600000B3102713FB26F9223040F200C010B36E
:10047000012703FB27F9243028F64F77206810B3B3
:100480000000F9CF10E41ABF002719C03B50319586
:10049000C31BD04010E41ABF0881033CF9F00B34B1
:1004A000E9F020917B001981110F1213EDCF4A81E1
:1004B000441F093641F10D3211F0013E29F7009336
:1004C00082003F914F911F910F912F91DF91CAB7F9
:1004D000C6FD4FCFCF91CFBFCF911895209182000D
:1004E000222379F310918000112369F534306AF1E9
:1004F0003093800020937C0010917D003BE0311B05
:1005000030937D0022C0009180000130E4F40AE5C0
:100510004F7049F43091600034FD19C000936000C1
:10052000C4E6D0E018C030916F0034FD10C00093D5
:100530006F00C0E7D0E00FC02795A8F45150A9F490
:10054000220F0000F9CF4AE503C042ED01C0432F5E
:10055000C4E1D0E032E011B31C60939A11BB02B346
:1005600020E41CE05F93012756E002BB279520F4AE
:10057000515021F4220FF9CF012756E000003B5AD9
:1005800002BBD0F2279528F4515029F4220F000025
:10059000F9CF012756E0279502BB20F4515021F4F2
:1005A000220FF9CF012756E02991332302BB21F610
:1005B000037F10918100110FC651D04002BB11F092
:1005C00010937B0010E41ABF086011B3137F402F13
:1005D000437F5F9100C000C002BB11BB42BB71CF23
:1005E000FC01808180768034C9F48181813041F4BE
:1005F000828180FF02C0C09A01C0C09880E0089547
:10060000823061F488B381708093630083E690E068
:1006100090937F0080937E0081E0089580E00895AC
:100620002EE088E190E00FB6F894A89581BD0FBE4A
:1006300021BD4DDD8B9A20E048EB5BE004C0A8951E
:10064000CA010197F1F72150D1F78B98B89A7894A5
:0A065000A8954ADDFDCFF894FFCF16
:02065A005AFF45
:00000001FF
