:1000000012C017C016C015C014C013C012C011C052
:1000100010C00FC00EC00DC00CC00BC00AC009C07C
:1000200008C007C006C011241FBECFEDCDBF02D04F
:1000300037C0E6CF8FEF81BB43E024E630E042BB20
:100040008CEB92E0F9013197F1F70197D9F712BAE9
:100050008CE494E0F9013197F1F70197D9F742BBAD
:100060008CEB92E0F9013197F1F70197D9F712BAC9
:100070008CE494E0F9013197F1F70197D9F742BB8D
:100080008CEB92E0F9013197F1F70197D9F712BAA9
:1000900080E197E2F9013197F1F70197D9F7CFCFD6
:0400A000F894FFCF02
:00000001FF
