:020000020000FC
:100000000FED0DBF0FEF07BB002708BB01D0FECFE0
:1000100029D057D045D026D059D05DD023D00895CF
:10002000992766958E9A969828D08E9826D0869B8A
:1000300002C0606801C0606025D09395983089F750
:10004000089599278E9A969860FF04C016D08E98CE
:1000500019D003C017D08E9810D06695939598301C
:1000600089F708958E9A969812D08E980BD0869B19
:1000700002C00DD001C00BD0089520E023952A3096
:10008000E9F7089520E023952C33E9F7089520E05F
:1000900030E023952A3FE9F733953230D1F70895C0
:1000A00020E0239503D02832E1F708952F9320E034
:1000B00030E023952A3FE9F733953D32D1F72F9170
:1000C000F8946CECBEDF64E4BCDF08956CECB9DF3F
:1000D0006EEBB7DF0895A4DF862FA2DF762F089599
:00000001FF
