:1000000012C024C023C022C021C020C01FC01EC0F7
:100010001DC01CC01BC01AC019C018C017C016C014
:1000200015C014C013C011241FBECFE5D4E0DEBF3D
:10003000CDBF10E0A0E6B0E0E0EFF4E002C0059034
:100040000D92A838B107D9F7C4D150C2D9CF282F03
:10005000207F28BBC09AC29A20EA3FE0F90131977D
:10006000F1F7C298C098F9013197F1F790E044E0B8
:10007000880F991F4A95E1F788BBC09AC29AC901B7
:100080000197F1F7C298C098C9010197F1F7089557
:10009000282F207F28BBC29A20EA3FE0F901319740
:1000A000F1F7C298F9013197F1F790E054E0880F29
:1000B000991F5A95E1F788BBC29AC9010197F1F7D8
:1000C000C298C9010197F1F7089580E69AEE019769
:1000D000F1F718BA18BA87B3806F87BB87B3876008
:1000E00087BB80E388BBC29A20EA3FE0F9013197E1
:1000F000F1F7C298F9013197F1F788BBC29AC901AB
:100100000197F1F7C298C9010197F1F780E288BB26
:10011000C29AC9010197F1F7C298C9010197F1F795
:1001200088E2B6DF8EE0B4DF089581E0B1DF0895A4
:1001300082E0AEDF08950F931F93CF93DF93062FD6
:10014000009741F0EC0110E003C0899180DF1F5F50
:100150001017D8F3DF91CF911F910F91089562305E
:1001600031F0633031F0613029F4805C03C08C5E83
:1001700001C08C5A80688CDF08951F93CF93DF9362
:10018000EC01862F642FEBDF10E002C060DF1F5F01
:10019000FE01E10FF11D84918823C1F7DF91CF911A
:1001A0001F910895EF92FF920F931F93CF93DF93C8
:1001B0007C01162F110F110F110F1064C0E0D0E059
:1001C000F701EC0FFD1F0491812F8C0F61DF802F51
:1001D0003EDF2196C830D10599F7DF91CF911F916D
:1001E0000F91FF90EF9008950F931F93082F10E049
:1001F00003C08EE14DDF1F5F1017D8F31F910F91E1
:1002000008950F931F93082F10E003C088E140DF8B
:100210001F5F1017D8F31F910F9108958EE038DFFC
:1002200008958FE035DF08958CE032DF089588E08F
:100230002FDF08958CE02CDF08950F931F93082F74
:1002400010E003C080E124DF1F5F1017D8F31F9177
:100250000F9108950F931F93082F10E003C084E1BE
:1002600017DF1F5F1017D8F31F910F91089520B368
:1002700030E002C0359527958A95E2F720953095B4
:1002800021703070C901089520E030E0E199FECF7F
:10029000FC01E20FF31FE081E199FECF3FBB2EBBD3
:1002A000EDBB0FB6F894E29AE19A0FBE2F5F3F4F75
:1002B0002430310559F7089520E030E0E199FECF70
:1002C000E199FECF3FBB2EBBE09A8DB38F3F19F46F
:1002D00020E030E007C02F5F3F4F2430310571F739
:1002E00021E030E0C901089580E090E02FEFE1992E
:1002F000FECFE199FECF9FBB8EBB2DBB0FB6F8940E
:10030000E29AE19A0FBE01968430910581F7089533
:10031000AC0120E030E0E199FECFE199FECF3FBB98
:100320002EBBE09A8DB3FA01E20FF31F908189177B
:1003300099F080E061E013DF80E690E066E0FBDEAC
:1003400080ED97E020E931E0F9013197F1F701976D
:10035000D9F720E030E02AC02F5F3F4F243031052D
:10036000D1F680E061E0FBDE80E090E02FEFE199E4
:10037000FECFE199FECF9FBB8EBB2DBB0FB6F8948D
:10038000E29AE19A0FBE01968430910581F787E6E3
:1003900090E067E0D0DE80ED97E020E931E0F90100
:1003A0003197F1F70197D9F721E030E0C9010895BD
:1003B000D6DE8FE690E068E0BEDE089585309105D8
:1003C0003CF4815061E0CBDE88E790E061E0B3DE91
:1003D00008958F929F92AF92BF92CF92DF92EF9249
:1003E000FF920F931F93DF93CF9300D000D0CDB730
:1003F000DEB711BA6ADE99DE17DF882483947E01A6
:100400000894E11CF11CE2E09E2E74E0A72E68E047
:10041000B62E52DF6C01009741F487DE80E060E089
:100420009EDE8AE790E067E007C07FDE80E060E064
:1004300096DE82E890E065E07EDE80E061E08FDEBF
:1004400000E010E0809B03C08099FECF37C0819B05
:1004500003C08199FECF37C0829B03C08299FECF33
:1004600037C0839B03C08399FECF37C0043011058A
:100470004CF3C114D104B9F480E090E0E199FECFCF
:10048000F701E80FF91FE081E199FECF9FBB8EBB1A
:10049000EDBB0FB6F894E29AE19A0FBE0196843054
:1004A000910561F7B6CFC70133DF019709F4B1CFEA
:1004B00080E090E061E070E07BDFC2CFF701E00F09
:1004C000F11F80820EC0F701E00FF11F908209C07A
:1004D000F701E00FF11FA08204C0F701E00FF11F48
:1004E000B0820F5F1F4FC80169DFC0CFF894FFCF04
:1004F000436879626E650053707261766E650020A4
:1005000020202020202020002A004E617374617674
:080510003A00566C6F7A3A00C4
:00000001FF
