:1000000012C017C016C015C014C013C012C011C052
:1000100010C00FC00EC00DC00CC00BC00AC009C07C
:1000200008C007C006C011241FBECFEDCDBF02D04F
:100030006BC0E6CF1F938FEF81BB87BB88BB82BBB2
:1000400080E197E229E130E0F9013197F1F701977A
:10005000D9F718BA12BA80E197E229E130E0F90144
:100060003197F1F70197D9F719E028EA31E648E12D
:10007000B0E3A0E6F0E4E1E073E066E05CE012BB30
:10008000C9010197F1F742BBC9010197F1F7B2BB72
:10009000C9010197F1F7A2BBC9010197F1F7F2BBC2
:1000A000E8BBC9010197F1F712BA78BBC901019702
:1000B000F1F768BBC9010197F1F758BBC901019776
:1000C000F1F748BBC9010197F1F758BBC901019786
:1000D000F1F768BBC9010197F1F778BBC901019736
:1000E000F1F7E8BBF2BBC9010197F1F718BAA2BB5F
:1000F000C9010197F1F7B2BBC9010197F1F742BB02
:0C010000C9010197F1F7BBCFF894FFCFC5
:00000001FF
