:020000020000FC
:100000000FE50DBF04E00EBF12D03AD020E040E073
:1000100084D020E08BD0342F06D013D0FACF5F9B52
:10002000FECF3CB108955D9BFECF3CB908950027FB
:100030000BB900BD08E10AB906E800BD0CE009B93A
:1000400008950FEF0CD00BD00AD009D008D007D0FC
:1000500006D005D004D003D00A95A1F708950F93D8
:100060000FEF0000000000000A95D9F70F910895E6
:100070000DE00A95F1F7089507E00A95F1F7089564
:10008000969895988E9A8D98F3DF08958D988E980E
:10009000EE270000859B0895869B0895EDDF8D9ADD
:1000A000EBDF8E9AE1E0E8CF8D9A8E9AE1DF8E98B1
:1000B000E3DF8D98DDCF78E08E98DEDF869BFECF84
:1000C000DBDF8894859908948E9AD2DF111F7A9588
:1000D00099F7772311F48D9801C08D9ACDDF8E9812
:1000E000C7DF8E9AC9DF8D98C7CF78E0110F10F463
:1000F0008D9801C08D9ABCDF8E98BEDF869BFECFA7
:10010000BBDF8E9A7A9591F78D98B6DF8E98B0DF27
:10011000E1E08599EE278E9A0895B8DF10EDE5DFCE
:10012000122FE3DF142FE1DFBFDF0895AFDF10ED03
:10013000DCDF122FDADFAADF11EDD7DFBCDF412FC2
:04014000B3DF08958C
:00000001FF
